:100000000C94F2010C941A020C941A020C944208FB
:100010000C9442080C9442080C941A020C944E075B
:100020000C941A020C941A020C941A020C94650691
:100030000C941A020C941A020C941A020C941A02D0
:100040000C941B060C941A020C9498040C947204E1
:100050000C941A020C941A020C941A020C941A02B0
:100060000C944C080C941A0207634236B79BD8A72D
:100070001A39685618AEBAAB558C1D3CB7CC5763CD
:10008000BD6DEDFD753EF6177231BF000000803F7B
:1000900008000000BE922449123EABAAAA2ABECD97
:1000A000CCCC4C3E00000080BEABAAAAAA3E000009
:1000B0000000BF000000803F000000000008417801
:1000C000D3BB4387D1133D190E3CC3BD4282AD2B38
:1000D0003E68EC8276BED98FE1A93E4C80EFFFBE30
:1000E00001C4FF7F3F00000000002000000000006E
:1000F0000030007C82827C00310042FE020000322F
:1001000000468A92620033004492926C0034001CD4
:1001100064FE04003500F292928C0036007C9292CC
:100120004C003700C08E90E00038006C92926C005A
:1001300039006492927C006100042A2A1E00620049
:10014000FE12120C0063000C1212120064000C125A
:1001500012FE0065001C2A2A18006600103E50504E
:100160000067000815151E006800FE101E000069DB
:1001700000002E0000006A0002012E00006B00FE4D
:10018000081412006C0000FE0200006D001E100E2C
:10019000100E6E001E10100E006F000C12120C00DC
:1001A00070001F12120C0071000C12121F0072005E
:1001B0001E08101000730012292512007400103E52
:1001C00012000075001C02021E00761804020418BA
:1001D000007718061C0618007800120C0C12007923
:1001E000001805051E007A0012161A120041007E42
:1001F00088887E004200FE92926C0043007C8282DE
:1002000044004400FE82827C004500FE92928200FF
:100210004600FE9090800047007C82925C0048007F
:10022000FE1010FE00490082FE8200004A000C020F
:1002300002FC004B00FE1028C6004C00FE02020229
:10024000004D00FE403040FE4E00FE403008FE4FA4
:10025000007C8282827C5000FE9090600051007C85
:10026000828A847A5200FE989462005300649292CB
:100270004C00540080FE8080005500FC0202FC000F
:100280005600F00C020CF05700FE043804FE580033
:10029000C63838C60059C0201E20C0005A00869AB1
:1002A000B2C2002C00010E0C00002E000006060059
:1002B00000257254781E2A4E2100007A0000003F6B
:1002C00000204A3000002D0010101010002B0808EC
:1002D0003E0808002F00020C3040002A22140814A7
:1002E00022003A0000140000002200C000C00000FC
:1002F0002328FE28FE28002800007C820000290018
:1003000000827C00003B0002240000007E00408050
:100310004080003B0002240000003D0028282828DF
:10032000007C0000FE0000003E0082442810003CDB
:10033000001028448200400000000000007C447C43
:10034000007C005C547454547C70107C74545C7C4D
:10035000545C40407C7C547C74547C00040020201D
:100360002000000000000000240027002A000000F8
:100370000008000201000003040700000000000064
:1003800000000000000023002600290000000000FB
:10039000250028002B0004040404040404040202C1
:1003A00002020202030303030303010204081020F4
:1003B00040800102040810200102040810203F06BA
:1003C0005B4F666D7D077F6F777C395E7971BF8685
:1003D000DBCFE6EDFD87FFEFF7FCB9DEF9F100407A
:1003E000CC1FB21F11241FBECFEFD8E0DEBFCDBFA0
:1003F00011E0A0E0B1E0E2E9F1E502C005900D9264
:10040000A639B107D9F725E0A6E9B1E001C01D92F0
:10041000A33CB207E1F711E0C1EFD1E004C021979E
:10042000FE010E947A26C03FD107C9F70E945610EC
:100430000C94BC280C940000CF92DF92EF92FF92B4
:100440000F931F93CF93DF936C017A018B01C0E070
:10045000D0E0CE15DF0589F0D8016D918D01D60170
:10046000ED91FC910190F081E02DC6010995892B59
:1004700011F47E0102C02196ECCFC701DF91CF912C
:100480001F910F91FF90EF90DF90CF900895FC01A6
:10049000538D448D252F30E0842F90E0821B930BE9
:1004A000541710F0CF96089501970895FC01918D8F
:1004B000828D981761F0828DDF01A80FB11D5D96C6
:1004C0008C91928D9F5F9F73928F90E008958FEF34
:1004D0009FEF0895FC01918D828D981731F0828DE8
:1004E000E80FF11D858D90E008958FEF9FEF08953F
:1004F000FC01918D228D892F90E0805C9F4F821BA3
:1005000091098F73992708958AEA92E00E947802F0
:1005100021E0892B09F420E0822F0895FC01848DCD
:10052000DF01A80FB11DA35ABF4F2C91848D90E01D
:1005300001968F739927848FA689B7892C93A089F8
:10054000B1898C9180648C93938D848D981306C0AF
:100550000288F389E02D80818F7D80830895EF925A
:10056000FF920F931F93CF93DF93EC0181E0888F6D
:100570009B8D8C8D981305C0E889F989808185FD54
:1005800024C0F62E0B8D10E00F5F1F4F0F73112745
:10059000E02E8C8DE8120CC00FB607FCFACFE8896C
:1005A000F989808185FFF5CFCE010E948E02F1CFBF
:1005B0008B8DFE01E80FF11DE35AFF4FF0820B8F88
:1005C000EA89FB898081806207C0EE89FF896083A8
:1005D000E889F98980818064808381E090E0DF91FF
:1005E000CF911F910F91FF90EF900895CF93DF93DC
:1005F000EC01888D8823C9F0EA89FB89808185FD1B
:1006000005C0A889B9898C9186FD0FC00FB607FC7B
:10061000F5CF808185FFF2CFA889B9898C9185FFBC
:10062000EDCFCE010E948E02E7CFDF91CF910895EA
:1006300080E090E0892B29F00E94840281110C94C3
:1006400000000895833081F028F4813099F08230E1
:10065000A1F008958730A9F08830B9F08430D1F442
:10066000809180008F7D03C0809180008F77809380
:100670008000089584B58F7702C084B58F7D84BDD6
:1006800008958091B0008F7703C08091B0008F7D76
:100690008093B00008953FB7F8948091A60290919E
:1006A000A702A091A802B091A90226B5A89B05C0F7
:1006B0002F3F19F00196A11DB11D3FBFBA2FA92FE1
:1006C000982F8827820F911DA11DB11DBC01CD015E
:1006D00042E0660F771F881F991F4A95D1F708954A
:1006E00085ED8093BC008091BC0084FDFCCF10920E
:1006F0007802089540915202262F30E0240F311DD8
:1007000021323105DCF4209178022430C9F4FC0157
:1007100080E090E0861758F4309152022191DC017C
:10072000A05DBD4FA30FB11D2C930196F3CF809117
:100730005202680F6093520280E0089581E00895AC
:1007400082E0089508958FEF9FEF08958FEF9FEF58
:10075000089580912F0290E09195819591090895D7
:10076000CF93DF9300D0CDB7DEB7CB01642F4983A1
:100770005A830E947A034981842F5A81952F0F90C2
:100780000F90DF91CF910895CF93DF931F92CDB754
:10079000DEB7698361E0CE0101960E947A0381E0B1
:1007A00090E00F90DF91CF910895089580E090E060
:1007B00008950E9477280F931F93CF93DF93EC0146
:1007C00088819981009729F02A813B812617370774
:1007D00088F48B016F5F7F4F0E94AD27009761F017
:1007E000998388831B830A832C813D81232B11F4F9
:1007F000FC01108281E001C080E0DF91CF911F9168
:100800000F910895EF92FF920F931F93CF93DF9371
:1008100000D0CDB7DEB78C0169831A82FC01E48079
:10082000F580FFEFEF1AFF0AB7010E94DB03882370
:1008300081F0F8012081318184819581BE016F5F53
:100840007F4F820F931F0E948528F801F582E48272
:1008500081E00F900F90DF91CF911F910F91FF904A
:10086000EF900895EF92FF920F931F93CF93DF9332
:10087000EC017B018A01BA010E94DB0328813981E6
:1008800081110DC02115310519F0C9010E941527EC
:10089000198218821D821C821B821A8206C01D8347
:1008A0000C83B701C9010E948528CE01DF91CF9149
:1008B0001F910F91FF90EF900895FC01118210821B
:1008C00013821282158214826115710551F0FB01A9
:1008D00001900020E9F73197AF01461B570B0C94AC
:1008E000320408951F920F920FB60F9211242F9386
:1008F0003F934F935F936F937F938F939F93AF93A8
:10090000BF93EF93FF938AEA92E00E948E02FF91D9
:10091000EF91BF91AF919F918F917F916F915F9177
:100920004F913F912F910F900FBE0F901F901895F0
:100930001F920F920FB60F9211242F938F939F93B4
:10094000EF93FF93E091BA02F091BB028081E091B6
:10095000C002F091C10282FD12C090818091C30259
:100960008F5F8F732091C402821751F0E091C30210
:10097000F0E0E655FD4F958F8093C30201C0808162
:10098000FF91EF919F918F912F910F900FBE0F903C
:100990001F901895CF93DF93282F30E0F901E2598B
:1009A000FC4F8491F901E655FC4FD491F901EA56C8
:1009B000FC4FC491CC2391F081110E942203EC2FB3
:1009C000F0E0EE0FFF1FEE57FC4FA591B491EC91B4
:1009D000ED2381E090E021F480E002C080E090E02F
:1009E000DF91CF9108951F93CF93DF93282F30E0AD
:1009F000F901E259FC4F8491F901E655FC4FD4917D
:100A0000F901EA56FC4FC491CC23C9F0162F81118D
:100A10000E942203EC2FF0E0EE0FFF1FE457FC4F83
:100A2000A591B4918FB7F894111105C09C91ED2F49
:100A3000E095E92302C0EC91ED2BEC938FBFDF91A1
:100A4000CF911F910895CF93DF9390E0FC01E6557D
:100A5000FC4F2491FC01EA56FC4F8491882361F1FC
:100A600090E0880F991FFC01EC59FC4FC591D4917F
:100A7000FC01E457FC4FA591B491611109C09FB7E7
:100A8000F8948881209582238883EC912E230BC0D3
:100A9000623061F49FB7F8943881822F8095832368
:100AA0008883EC912E2B2C939FBF06C08FB7F894B0
:100AB000E8812E2B28838FBFDF91CF9108951F935C
:100AC000CF93DF93182FEB0161E00E94230520975D
:100AD00011F460E004C0CF3FD10539F461E0812F0B
:100AE000DF91CF911F910C94F304E12FF0E0E259D4
:100AF000FC4FE491E330F9F048F4E130B9F0E23032
:100B0000A1F584B5806284BDC8BD34C0E730E9F08A
:100B1000E83019F1E43049F58091800080628093DB
:100B20008000D0938B00C0938A0024C084B5806875
:100B300084BDC7BD1FC08091800080688093800005
:100B4000D0938900C093880015C08091B000806860
:100B50008093B000C093B3000DC08091B00080625C
:100B60008093B000C093B40005C0C038D1050CF02C
:100B7000B5CFAFCFDF91CF911F9108958E3008F0A0
:100B80008E508770806480937C0080917A008064AE
:100B900080937A0080917A0086FDFCCF8091780066
:100BA0002091790090E0922B08958F929F92AF92BE
:100BB000BF92CF92DF92EF92FF926B017C010E9475
:100BC0004B034B015C01C114D104E104F104F1F0C9
:100BD0000E944B03DC01CB0188199909AA09BB09C2
:100BE000883E9340A105B10570F321E0C21AD108F7
:100BF000E108F10888EE880E83E0981EA11CB11C64
:100C0000C114D104E104F10419F7DDCFFF90EF9096
:100C1000DF90CF90BF90AF909F908F9008952FB7A7
:100C2000F8946091A2027091A3028091A402909125
:100C3000A5022FBF08951F920F920FB60F92112495
:100C40002F933F938F939F93AF93BF938091A20273
:100C50009091A302A091A402B091A5023091A102AB
:100C600023E0230F2D3720F40196A11DB11D05C0EF
:100C700026E8230F0296A11DB11D2093A1028093A7
:100C8000A2029093A302A093A402B093A502809124
:100C9000A6029091A702A091A802B091A902019684
:100CA000A11DB11D8093A6029093A702A093A80254
:100CB000B093A902BF91AF919F918F913F912F91D6
:100CC0000F900FBE0F901F9018951F920F920FB6A6
:100CD0000F9211242F933F934F935F936F937F93C2
:100CE0008F939F93AF93BF93EF93FF938091A00255
:100CF00087FF05C010928500109284001BC02091D0
:100D0000A002022E000C330B80916B0390E0281799
:100D1000390784F48091A002082E000C990BFC0185
:100D2000EE0FFF1F8E0F9F1FFC01E95BFC4F8081C0
:100D300087FD15C08091A0028F5F8093A002209153
:100D4000A002022E000C330B80916B0390E0281759
:100D50003907C4F48091A0028C3064F113C08091F3
:100D6000A002082E000C990BFC01EE0FFF1F8E0F46
:100D70009F1FFC01E95BFC4F808160E08F770E9440
:100D8000F304D8CF8091840090918500049680343C
:100D90009C4918F480E49CE905C0809184009091FE
:100DA0008500049690938900809388008FEF80934C
:100DB000A0023BC020918400309185008091A00268
:100DC000082E000C990BFC01EE0FFF1F8E0F9F1FCA
:100DD000FC01E95BFC4F81819281820F931F90930C
:100DE0008900809388008091A002082E000C990B46
:100DF000FC01EE0FFF1F8E0F9F1FFC01E95BFC4FF4
:100E0000808187FF12C08091A002082E000C990BF0
:100E1000FC01EE0FFF1F8E0F9F1FFC01E95BFC4FD3
:100E2000808161E08F770E94F304FF91EF91BF9181
:100E3000AF919F918F917F916F915F914F913F9172
:100E40002F910F900FBE0F901F9018951F93CF9367
:100E5000DF93EC01162F61E089810E942305612F49
:100E60008981DF91CF911F910C94F304FC011082D2
:100E7000118212820895F89482E08093B0008093EA
:100E8000B10094E69093B3001092B200809370008A
:100E900078941092D80380936D0308951F920F9257
:100EA0000FB60F9211240F931F932F933F934F93DD
:100EB0005F936F937F938F939F93AF93BF93CF93E2
:100EC000EF93FF9382E00E94CA04C82F80917203BF
:100ED00090917303019690937303809372038091B2
:100EE000D803843618F085E080936D0390916D03EC
:100EF000933079F018F4923039F072C0943011F1D7
:100F0000953009F44AC06CC0C1116AC01092D80370
:100F100029C0C13009F064C0E091D80381E08E0F90
:100F20008093D803F0E08091720390917303E459A9
:100F3000FC4F8087109273031092720384E08093B9
:100F40006D034EC0C11114C0E091D80381E08E0F33
:100F50008093D803F0E08091720390917303E45979
:100F6000FC4F8087109273031092720383E0E7CFE7
:100F700080917203909173038536910588F185E025
:100F800080936D030E940F0660936E0370936F034E
:100F9000809370039093710323C00E940F06009109
:100FA0006E0310916F032091700330917103DC0187
:100FB000CB01801B910BA20BB30B893C9105A105C2
:100FC000B10540F01092D80310927303109272038F
:100FD00082E0B5CFC11104C0109273031092720366
:100FE000FF91EF91CF91BF91AF919F918F917F91A1
:100FF0006F915F914F913F912F911F910F910F90A2
:101000000FBE0F901F9018950F931F93CF93DF93F0
:101010008C016F3F710519F014F06FEF70E0EB0178
:1010200061307F4F14F4C1E0DFEFF80186819781D2
:101030008C179D0711F1D783C683D7FD0AC061E0E5
:10104000C8010E9426078FE090E00197F1F7BE01EA
:101050000CC060E0C8010E9426078FE090E0019775
:10106000F1F7662777276C1B7D0BF8018081DF91F4
:10107000CF911F910F910C945F05DF91CF911F913C
:101080000F9108951F920F920FB60F9211240F9097
:101090000FBE0F901F9018951F920F920FB60F92D0
:1010A00011242F933F934F935F936F937F938F936D
:1010B0009F93AF93BF93EF93FF938091B900887F85
:1010C000803609F49CC068F5883209F45BC090F45E
:1010D000803109F454C038F4882309F4F6C088300C
:1010E00009F44DC0F6C0883109F44CC0803209F4CF
:1010F0005DC0EFC0803409F468C048F4803309F45F
:1011000055C0883309F0E5C080937702D8C0803598
:1011100009F44FC0883509F45DC0883409F0D9C09E
:10112000D6C0883909F4C7C0A8F4883709F467C065
:1011300038F4883609F463C0803709F460C0C9C048
:10114000883809F4B8C0803909F45FC0803809F0E4
:10115000C0C05BC0803B09F486C038F4803A09F413
:1011600066C0883A09F47FC0B4C0803C09F4A7C0C7
:10117000883C09F4A4C0883B09F48AC0AAC08091C5
:101180009D0210C090919C0280919B02981770F56F
:10119000E0919C0281E08E0F80939C02F0E0E55884
:1011A000FD4F80818093BB0085EC86C080937702E1
:1011B0008EC0E0919C0281E08E0F80939C02809112
:1011C000BB00F0E0E558FD4F808390919C02809138
:1011D0009B026EC0E0919C0281E08E0F80939C0286
:1011E0008091BB00F0E0E558FD4F808380917A024A
:1011F00081116DC081E08093790284EA61C083E04F
:101200008093780210927602CFCF8091760280325E
:1012100008F051C0E091760281E08E0F8093760253
:101220008091BB00F0E0EA5AFD4F8083BDCF85EC92
:101230008093BC001092780280917602803230F464
:10124000E0917602F0E0EA5AFD4F1082609176025A
:1012500070E0E0915402F091550286E592E0099524
:101260001092760236C084E0809378021092530286
:1012700010925202E0915002F09151020995809132
:101280005202811105C081E0809352021092300217
:10129000E091530281E08E0F80935302F0E0E05D15
:1012A000FD4F80818093BB00909153028091520248
:1012B000981708F479CF85E88093BC000AC085ECC4
:1012C0008093BC001092780204C0109277020E94B2
:1012D0007003FF91EF91BF91AF919F918F917F919B
:1012E0006F915F914F913F912F910F900FBE0F9093
:1012F0001F901895EDE2F2E0DC01A656BE4F8C91EE
:10130000808311968C91818380912D0290912E0281
:10131000089540E060E080E00E94D60A0E94770ACB
:1013200060E070E08EEE93E00E94040860E070E000
:1013300086EE93E00C940408609101017091020123
:10134000719561957109072E000C880B990B0E940D
:10135000A6212DEC3CEC4CE45FE30E9405220E94A8
:101360003C248EEE93E00E9404086091010170918C
:101370000201719561957109072E000C880B990B7C
:101380000E94A6212DEC3CEC4CE45FE30E94052278
:101390000E943C2486EE93E00C94040860910101C5
:1013A00070910201072E000C880B990B0E94A62158
:1013B0002DEC3CEC4CE45FE30E9405220E943C24AF
:1013C0008EEE93E00E940408609101017091020189
:1013D000072E000C880B990B0E94A6212DEC3CECEB
:1013E0004CE45FE30E9405220E943C2486EE93E0D9
:1013F0000C94040860910101709102018EEE93E05B
:101400000E9404086091010170910201719561953B
:10141000710986EE93E00C940408609101017091CB
:1014200002017195619571098EEE93E00E940408A6
:10143000609101017091020186EE93E00C94040822
:10144000682F8AEA92E00C94AF02CF92DF92FF926B
:101450000F931F93CF93DF931F92CDB7DEB7162F55
:10146000F72E082F82E099830E94200A86E9C82E71
:1014700081E0D82E412F5F2D602F9981792FF601C1
:101480004083518362837383812F0E94200AF60177
:1014900081810E94200AF60182810E94200AF601C1
:1014A00083810F90DF91CF911F910F91FF90DF907B
:1014B000CF900C94200A8FEF0E94200A85E50E94AD
:1014C000200A8DE691E00C94650A009769F0FC0112
:1014D00001900020E9F73197AF01481B590BBC017F
:1014E0008AEA92E00C941C0280E090E00895A091BA
:1014F0008C04B0918D042091900480918804909187
:101500008904AC01440F551F840F951F70918A0404
:1015100060918B045FB7F8944C91322F309534234F
:10152000242BE72FF62F8E0F9F1FE817F90781F066
:10153000419168E02C9300C047FF3C93440F00C0EA
:1015400000C000C008F43C9300C06A9599F7EDCF45
:101550005FBF61E070E080E090E00C94D505A82FBB
:10156000B0E0E0918804F0918904AE17BF07E0F481
:10157000982F990F890F90E0E0918A04F0918B04E5
:10158000E80FF91F4083E0918A04F0918B04E80F83
:10159000F91F618340918A0450918B04FA01E80F8E
:1015A000F91F228381E0089580E00895FF920F9350
:1015B0001F93CF93DF93182F062FF42EC0E0D0E0B7
:1015C000E0918804F0918904CE17DF0740F42F2DB5
:1015D000402F612F8C2F0E94AF0A2196F1CF81E01E
:1015E000DF91CF911F910F91FF900895CF93DF93DB
:1015F000EC0160E089810E94230589810E94CA0470
:1016000021E0892B09F420E0822FDF91CF9108950A
:10161000CF93DF93C0E0D0E080918804909189045B
:10162000C817D90740F420E040E060E08C2F0E940A
:10163000AF0A2196F1CFE7EBF3E0E491E093900459
:10164000E3EAF3E0E491F0E0EE0FFF1FE457FC4F14
:101650008591949190938D0480938C0461E08DE04A
:101660000E9423051092860482E080938704DF9114
:10167000CF9108953F924F925F926F927F928F9297
:101680009F92AF92BF92CF92DF92EF92FF920F9311
:101690001F93CF93DF934A015B019C0140E050E030
:1016A00060E472E48FE090E00E94C32269017A0155
:1016B00030909D0461E0832D0E942305A8EEB3E0E5
:1016C000A50194010E94E2222B013C01E601D7FC16
:1016D0002196D595C7958E01000F111F000F111F80
:1016E000055011090D2C000CEE08FF08812C912CDF
:1016F000540184149504A604B704D0F461E0832D4A
:101700000E94F304C230D10518F0C8010197F1F727
:1017100060E0832D0E94F304C230D10518F0C801A7
:101720000197F1F7A8958C0C9D1CAE1CBF1CE1CF56
:10173000DF91CF911F910F91FF90EF90DF90CF90AD
:10174000BF90AF909F908F907F906F905F904F90E1
:101750003F900895CF92DF92EF92FF920F931F93E5
:10176000CF93DF93EC010E940F0600917C0410914F
:101770007D0420917E0430917F04DC01CB01801B2D
:10178000910BA20BB30B4897A105B10518F081E0AE
:1017900080937B0480917B04882309F466C00E94B7
:1017A0000F0660937C0470937D0480937E04909375
:1017B0007F0410927B0460E086E794E00E94260795
:1017C00083E090E00197F1F761E086E794E00E9402
:1017D000260783E290E00197F1F760E086E794E066
:1017E0000E94260760E0809177040E9423052091E3
:1017F000770430E0F901E655FC4F6491F901EA56AF
:10180000FC4FE49187E38C9F80018D9F100D112484
:1018100008531F4FF0E0EE0FFF1FEE57FC4F85916E
:10182000949120E030E0462F0E941110611571055F
:101830008105910551F06B017C012FEFC21AD20A8C
:10184000E20AF20A8FE0F82203C0C12CD12C760103
:10185000C701B6010E94A6216093800470938104A1
:1018600080938204909383040CC0609180047091F3
:10187000810480918204909183040E943C246B0136
:101880007C01C114D104E104F10441F48AE38C9F8A
:1018900060018D9FD00C1124E12CF12CC701B60101
:1018A0000E94A62120E030E048E652E40E94CA23CC
:1018B000DF91CF911F910F91FF90EF90DF90CF902C
:1018C0000895CF92DF92EF92FF92DC01A03282E086
:1018D000B8070CF03EC0B7FD06C0A53BB1052CF023
:1018E000A4EBB0E002C0A0E0B0E08091E00328E803
:1018F00030E06901C81AD10887FDD394CC0CDD1CF7
:10190000CC0CDD1C0D2C000CEE08FF088091E103CF
:1019100028E532E0281B310987FD3395220F331F5C
:10192000220F331FA901330F660B770B9A01AB010E
:101930002C193D094E095F090E94ED2224EB30E08D
:1019400040E050E00E94C322C20ED31EE41EF51EEA
:10195000D6019091DF039C3098F58091E00348E830
:1019600050E0481B510987FD5395440F551F440F04
:10197000551FA417B5078CF08091E10328E532E0EC
:10198000281B310987FD3395220F331F220F331F88
:10199000AD012A173B070CF4A90142505109440F2D
:1019A000551F2FB7F894892F90E0FC01EE0FFF1F11
:1019B0008E0F9F1FFC01E95BFC4F528341832FBFB9
:1019C000FF90EF90DF90CF900895CF939091DF0339
:1019D0009C3008F052C0C82F61E00E94230580911E
:1019E000DF03E82FF0E09F01220F331FE20FF31F08
:1019F000E95BFC4FCF7790819078C92BC083109220
:101A0000E0031092E1036CE00E9446269CE0899F6F
:101A1000B001112440E050E09A01260F371FF90170
:101A2000EE0FFF1F2E0F3F1FF901E95BFC4F908166
:101A300097FD16C04F5F5F4F4C30510569F781111C
:101A40000FC01092800082E0809381001092850088
:101A500010928400B19A80916F00826080936F0031
:101A6000E091DF03F0E0CF01880F991FE80FF91F25
:101A7000E95BFC4F8081806880838091DF03CF9198
:101A80000895CF93C0919D0461E08C2F0E9423059F
:101A900060E08C2FCF910C94F304CF93DF93C6EFCB
:101AA000D3E060E088850E94F30460E089850E94AD
:101AB000F30461E088850E94F30461E08985DF9189
:101AC000CF910C94F304CF93DF93C6EFD3E061E0A2
:101AD00088850E94F30461E089850E94F30460E038
:101AE00089850E94F30460E08885DF91CF910C9492
:101AF000F304CF93DF93D82FC8E060E08091FE031A
:101B00000E94F304D0FF02C061E001C060E0809158
:101B1000FF030E94F304D69561E08091FE030E94CA
:101B2000F304C15051F760E08091FE030E94F3047A
:101B300061E08091FF030E94F30461E08091FE0365
:101B40000E94F30460E08091FF030E942305C8EC2B
:101B50008091FF030E94CA04892B69F0C150C1F72C
:101B600061E08091FF030E94230560E08091FF0304
:101B70000E94F304ECCF61E08091FF03DF91CF91ED
:101B80000C9423054F925F926F927F928F929F9257
:101B9000AF92BF92CF92DF92EF92FF920F931F937B
:101BA000CF93DF937C016AE00E940204C0E0D0E0A2
:101BB00044244394F9E05F2EA2ED6A2EB6E47B2E16
:101BC0001BE9C12E1CE8D12E0BE4A02E06E4B02E9A
:101BD0000BEB18E08BEF882E88E1982EF7018481BB
:101BE0009581C817D90708F06EC0F70180819181EF
:101BF000009729F0FC01EC0FFD1F808101C080E0FF
:101C0000482F409550E060E070E0762F652F542F0C
:101C10004427480F511D611D711DBA0155274427E6
:101C20004F6F109270004092B0005092B1006092DD
:101C3000B3007092B4008091B00080628093B000D5
:101C4000C6010197F1F78091B0008F7D8093B000BD
:101C5000C5010197F1F780E290E02091B000206289
:101C60002093B000F80140FF09C03197F1F72091AF
:101C7000B0002F7D2093B000F40108C03197F1F738
:101C80002091B0002F7D2093B000F8013197F1F73B
:101C900076956795579547950197F9F68091B0002D
:101CA00080628093B000C8010197F1F78091B00085
:101CB0008F7D8093B00064E170E080E090E00E944E
:101CC000D50521968BCFF89482E08093B000809365
:101CD000B10094E69093B3001092B200809370002C
:101CE000789480936D031092D80380916C0360E028
:101CF000DF91CF911F910F91FF90EF90DF90CF90E8
:101D0000BF90AF909F908F907F906F905F904F901B
:101D10000C942305EF92FF920F931F93CF93DF93C1
:101D20008C0161E0809143040E94F30460E08091A3
:101D300044040E94F304C8E0D0EC60E080914304C6
:101D40000E94F3046D2F6170809144040E94F3049B
:101D500061E0809143040E94F304D695C15069F775
:101D6000E801780180E1E80EF11C099118E060E0DB
:101D7000809143040E94F304602F607880914404B2
:101D80000E94F30461E0809143040E94F304000F79
:101D9000115069F7CE15DF0541F760E080914304EB
:101DA0000E94F30460E0809144040E94F30461E027
:101DB000809143040E94F30461E080914404DF9128
:101DC000CF911F910F91FF90EF900C94F304CF935C
:101DD000DF93D82F61E0809143040E94F30460E018
:101DE000809144040E94F304C8E060E080914304C1
:101DF0000E94F3046D2F6170809144040E94F304EB
:101E000061E0809143040E94F304D695C15069F7C4
:101E100060E0809143040E94F30460E080914404F8
:101E20000E94F30461E0809143040E94F30461E0A6
:101E300080914404DF91CF910C94F304CF93DF930E
:101E400000D000D0CDB7DEB79C01DE011196AD0108
:101E500094E09A0FF90181919F01FA018193AF01FA
:101E60009E13F8CF80E22C91223208F08C93EC91F3
:101E7000F0E0E254FC4FE491ED939A13F4CF0E940A
:101E8000630D80E40E94790D0E944D0D0E94630D48
:101E90008091FB030E94790D89810E94790D8A81CE
:101EA0000E94790D8B810E94790D8C810E94790DA1
:101EB0000E944D0D0E94630D8091FC030E94790DDC
:101EC0000F900F900F900F90DF91CF910C944D0DCC
:101ED000CF92DF92EF92FF920F931F93CF93DF93F6
:101EE00028E030E041E06FEF70E09FE0C92ED12C98
:101EF000C3E2D0E007ED10E090910404E091050406
:101F0000F0910604592F5095F42EF82281F0F894A0
:101F1000F2805F2152835181592B5183DE01119749
:101F2000F1F75281952B92837894F8010FC0F894C1
:101F3000F2805F2152835181592B5183DB0111972C
:101F4000F1F75281952B92837894F6013197F1F74E
:101F5000440F2150310981F6F894E0910504F09185
:101F60000604918180910404809589238183E09106
:101F70000504F0910604928180910404892B8283E8
:101F8000E0910504F091060492818091040480950B
:101F9000892382837894DF91CF911F910F91FF90D5
:101FA000EF90DF90CF90089590910404E0910504A4
:101FB000F0910604F8948181292F20958223818352
:101FC0008281892B828378948DE743E050E08150B1
:101FD00039F1DA011197F1F730813923C1F3F8941F
:101FE0008281822382838181892B81837894ABE7EC
:101FF000B7E01197F1F7F89481812823218382813A
:10200000892B8283A3E1B1E01197F1F780819823B6
:1020100081E009F080E07894E3E6F6E03197F1F7AB
:102020000895CF92DF92EF92FF920F931F93E82FC4
:10203000F92F05C0015011092109310961F1908181
:1020400096239417B9F305C00150110921093109EC
:1020500011F1908196239413F7CFC12CD12CE12C50
:10206000F12C0AC08FEFC81AD80AE80AF80A0C1532
:102070001D052E053F0579F080818623841791F395
:102080006C2D7D2D8E2D9F2D1F910F91FF90EF9028
:10209000DF90CF90089560E070E080E090E01F91C5
:1020A0000F91FF90EF90DF90CF900895CF93DF9343
:1020B000CDB7DEB76D970FB6F894DEBF0FBECDBFBC
:1020C000789484B5826084BD84B5816084BD85B513
:1020D000826085BD85B5816085BD80916E0081601F
:1020E00080936E00109281008091810082608093C5
:1020F00081008091810081608093810080918000C7
:102100008160809380008091B10084608093B100F1
:102110008091B00081608093B00080917A008460EB
:1021200080937A0080917A00826080937A00809117
:102130007A00816080937A0080917A008068809331
:102140007A001092C10065E070E080E090E00E94AB
:10215000D5050E94890961E08DE00E94230560E0B9
:1021600087E00E94230561E08DE00E94F3046CE2A9
:1021700071E080E090E00E94D50560E08DE00E9473
:10218000F3040E94080B40E060E080E00E94D60A61
:102190000E94770A61E070E080E090E00E94D5053F
:1021A00040E060E08AE00E94D60A0E94770A4CE292
:1021B00051E060E070E086E291E00E943A0B6CE250
:1021C00071E080E090E00E94D50540E06AE080E0A8
:1021D0000E94D60A0E94770A4CE251E060E070E06B
:1021E0008AE491E00E943A0B6CE271E080E090E0BA
:1021F0000E94D5054AE060E080E00E94D60A0E9475
:10220000770A4CE251E060E070E08EE591E00E94D8
:102210003A0B6CE271E080E090E00E94D5054AE064
:102220006AE08AE00E94D60A0E94770AE091BA0228
:10223000F091BB0282E08083E091B602F091B70298
:102240001082E091B802F091B90280E1808310928F
:10225000C202E091BE02F091BF0286E08083E0916D
:10226000BC02F091BD02808180618083E091BC025C
:10227000F091BD02808188608083E091BC02F09182
:10228000BD02808180688083E091BC02F091BD0234
:1022900080818F7D80830E94410D8BE194E00E94BC
:1022A0003B0783E691E00E94650A4091DD0350916F
:1022B000DE036091D9037091DA038AEA92E00E940A
:1022C0001C028DE691E00E94650A8DE80E94E70EEF
:1022D00081E080934504AE014F5F5F4F5C8B4B8B79
:1022E0004B5F4D8F8091D20181110DC00E940F066E
:1022F0006093CE017093CF018093D0019093D10170
:1023000081E08093D20184E793E09093220480934C
:1023100021048091D80390E09093240480932304B7
:1023200020916D03253009F057C020917403265881
:102330002D3540F48330910551F48091750381521D
:102340008931D0F08BE194E00E943B0745C0833493
:102350009105C4F38091750383548F3298F740E060
:1023600050E0BA0182E090E0FC01E459FC4F208586
:102370002850273050F0E6CF809176038850873080
:1023800008F7109220040C941A1EFC01E359FC4F2C
:10239000208527512331B0F4769567955795479559
:1023A0007068029682349105F9F680E280932004E9
:1023B00040931C0450931D0460931E0470931F04EB
:1023C0000C941A1E20852850273008F0BBCF769534
:1023D000679557954795E5CF809100018130B9F514
:1023E0000E940F060091CE011091CF012091D001E3
:1023F0003091D101DC01CB01801B910BA20BB30BFF
:1024000089379105A105B10510F00C94A51D1FC0D9
:1024100083359105A105B10510F00C94901F8A3405
:102420009105A105B10599F481E080930001F8942C
:102430004CE251E060E070E085E992E00E943A0BE6
:1024400078948FEF90E090930201809301011092B5
:102450000D028AEA92E00E947802181619064CF4DE
:1024600081E080930D028AEA92E00E9456028093F6
:102470000C0280910D02882311F40C94241C80918D
:102480000C0290910B02853561F491110AC0809184
:102490000A028F3FE1F481E08093090280930B02EE
:1024A00016C080930A02992391F0E0910902E2306C
:1024B00019F48093080207C0E33028F090910802D5
:1024C000915090930802F0E0E656FE4F8083809191
:1024D00009028F5F843318F48093090204C01092BC
:1024E000090210920B0280910B02882311F40C94C4
:1024F000241C8091080281110C94241C80910902F3
:10250000843010F40C94241C10920B0200919D0155
:102510000093070210919F0190919E01923009F45F
:102520008BC220F4913061F00C94221C943011F491
:102530000C94201C953011F40C94201C0C94221C3B
:10254000113049F08FEF0E94200A85E50E94200A91
:10255000802F0E94200A0091A001202F30E0173028
:1025600009F40BC188F4123009F457C030F4112378
:1025700009F40AC2113059F15AC2153008F4FDC0ED
:10258000153009F418C153C21E3109F43AC250F48F
:10259000113109F46AC1153109F49FC11F3009F0E6
:1025A00046C248C1133209F4D2C1123309F43AC207
:1025B0001F3109F03CC2220F331FF901E35FFE4FC8
:1025C000108160E0812F0E942305812F22C280911B
:1025D000780490E08217930769F0220F331FF90106
:1025E000EF5BFE4F80818093760481818093770436
:1025F0000093780480E991E00E94AA0B6B017C01B2
:102600008FEF0E94200A85E50E94200A8091070230
:102610000E94200AC701B60108C28091A101409121
:10262000020450E04217530741F44091030450E084
:10263000682F70E04617570749F1220F331FF90141
:10264000EF5BFE4F908190930004E181E0930104E1
:102650000093020480930304823009F0E92F8E2F47
:1026600090E0FC01E655FC4FE491E0930404FC018A
:10267000EA56FC4FE491F0E0EE0FFF1FEE57FC4FDF
:102680008591949190930604809305040E94D40F41
:102690008CEC0E94680F84E40E94680F0E940F0671
:1026A0006B017C0120910404E0910504F091060483
:1026B0008181922F9095892381838281822B8283CD
:1026C00083E290E00197F1F78081282311F40C94C4
:1026D000D11D0E94D40F8CEC0E94680F8EEB0E94DB
:1026E000680FCE0101967C014FEC50E088E090E04D
:1026F00071E060E010910404E0910504F09106049B
:10270000F8942181212B21832281012F0095202300
:10271000228327E030E0D9011197F1F721810223CC
:1027200001832281212B228323E230E0D9011197FA
:10273000F1F720817894FA013197F1F7212309F01C
:10274000672B770F0197B1F6F70161937F01FD8D3C
:10275000FE11CCCF6A8170E0762F66278981682BC5
:10276000072E000C880B990B0E94A62120E030E078
:1027700040E85DE30E94052258C18091E40390E0A7
:102780008217930781F0220F331FF901EF5BFE4F91
:1027900080818093E20381818093E3030093E403CB
:1027A00060E00E94230560E08091E3030E9423051E
:1027B0008091E3032EC14091A1018091190490E022
:1027C0008217930769F0220F331FF901EF5BFE4F69
:1027D00080818093170481818093180400931904E9
:1027E000413081F460E0809117040E9423058091BC
:1027F00017040E94BE052091DA013091DB018A5E48
:10280000914011C0423099F460E0809118040E9418
:102810002305809118040E94BE058A5E9140209194
:10282000DC013091DD01BC01620F731F51C060E01B
:1028300070E04EC08091E40390E08217930781F02E
:10284000220F331FF901EF5BFE4F80818093E2037B
:1028500081818093E3030093E40360E00E942305F9
:1028600082EE93E00E94F60A6BC08091E40390E050
:1028700082179307A9F0220F331FF901EF5BFE4F78
:1028800080818093E20391819093E3030093E403BA
:1028900060E00E94230560E08091E3030E9423052D
:1028A00060E08091E2030E9423058091E2030E9490
:1028B000CA048C0182EE93E00E94F60A61E070E0A7
:1028C000012B11F460E070E0660F771F680F711D37
:1028D000072E000C880B990BA2C08091A10140919A
:1028E000E40350E04217530711F00C94E21D4091AD
:1028F000E50350E0682F70E04617570711F00C947D
:10290000E21D62E0813091F48091E2030E94230590
:1029100060E08091E2030E9423058091E2030E941F
:10292000CA0461E0892B69F060E00BC08091E30389
:102930000E94230582EE93E00E94F60A61E086275A
:10294000682F70E080E090E00E94A4216EC00091AA
:10295000A101220F331FF901E35FFE4F108160E0F8
:10296000812F0E942305812F0E94BE0511E00B9745
:102970000CF010E0012781E00E94200A802F0E94C5
:10298000200A1093DE0153C01A8219821C821B8216
:102990001E821D826091D9037091DA036115710561
:1029A00041F04091DD035091DE03CE0101960E947B
:1029B0003204FD800F2D1E8184E00E94200A8F2D9D
:1029C0000E94200AE12CF12CE016F106ACF48D8176
:1029D0009E81E816F90648F489819A81009729F0CA
:1029E000FC01EE0DFF1D808101C080E00E94200AE5
:1029F0002FEFE21AF20AE8CF89819A810E94152707
:102A000016C060E0802F0E942305802F0E94CA0418
:102A100002C00E94BE05BC01990F880B990B0E9451
:102A2000A62103C060E070E0CB010E94250A8DE67C
:102A300091E00E94650A06C7C090A001EC2DF0E06D
:102A40001D3009F44AC618F5183009F44AC0B8F424
:102A5000133009F428C6153009F0F2C610920001AF
:102A600086E090E00E947A09BC018EEE93E00E941D
:102A7000040888E090E00E947A09BC012DC01A3059
:102A8000F1F008F491C01B3009F47CC0D9C61132B2
:102A900009F4B8C650F41E3109F488C6103209F49E
:102AA0008FC6143109F0CCC65AC6193209F483C155
:102AB000123309F4B3C6123209F0C2C68CC61092A2
:102AC000000187E090E00E947A09BC0149E0C4124D
:102AD00003C08EEE93E002C086EE93E00E940408ED
:102AE000AFC610920001D090A1011091A2010091F7
:102AF000A301F090A401E090A5018091860490E0EC
:102B00008E179F0711F00C94F31D8091870490E0BD
:102B10002D2D30E08217930711F00C94F31D20C087
:102B200082E0D8120C94161E80918504282F30E084
:102B3000F901E655FC4FE491E0939004F901EA565F
:102B4000FC4FE491F0E0EE0FFF1FE457FC4F25919E
:102B5000349130938D0420938C0461E00E9423050E
:102B6000112341F02E2D4F2D602F8FEF810F0E94EA
:102B7000AF0A05C04E2D6F2D802F0E94D60A0E94ED
:102B8000770A5EC68091A101EE0FFF1FEF5BFE4F3B
:102B9000813011F4808101C081811091A201153B27
:102BA00008F04EC690E033C68091F80390E08E178F
:102BB0009F0751F1C092F803EE0FFF1FEF5BFE4F2E
:102BC00081818093F70390819093F6038093FE03B5
:102BD0009093FF0361E00E94230561E08091FF0371
:102BE0000E94230580E48093FA0380EC8093FB032A
:102BF0008AE88093FC0380E289838A838B838C83B9
:102C0000CE0101960E941E0F8091A1018093960132
:102C10008091A201809397018091A30180939801F4
:102C20008091A40180939901409096015090970162
:102C3000609098017090990119821A821B821C82FF
:102C400020E030E0A901C301B2010E949F2187FF6B
:102C500008C077FA709477F8709481E2898311E064
:102C600001C010E07DEFA72EBB24BA94E3E02E2E26
:102C7000312C00E037FC4CC0B1016F5F7F4F072E55
:102C8000000C880B990B0E94A6219B01AC0160E00F
:102C900070E080E291E40E94CF246B017C019B01F3
:102CA000AC01C301B2010E94CA230E9472246D8B41
:102CB0007E8B8F8B988FB101032C000C880B990BA6
:102CC0000E94A6219B01AC0160E070E080E291E4EB
:102CD0000E94CF24698F7A8F8B8F9C8FA7019601DA
:102CE0006D897E898F89988D0E9405229B01AC0198
:102CF000C301B2010E945D23298D3A8D4B8D5C8DFD
:102D00000E94CA230E9472240E943C24CB0123C04B
:102D100020E030E040E251E4C301B2010E9405220C
:102D2000A2E0AA16B10484F020E030E040E251E4D1
:102D30000E940522B2E0AB16B10431F020E030E091
:102D400040E251E40E9405220E943C24CB016AE04B
:102D500070E00E946626181619062CF0222019F041
:102D60000023B1F00CC021100AC0E1E0F0E0EC0F4C
:102D7000FD1FE10FF11D60E1680F608307C0E1E016
:102D8000F0E0EC0FFD1FE10FF11D80831F5F01E0FC
:102D9000143060F4E1E02E1A3108FFEFAF1ABF0AD9
:102DA0002CEF22162FEF320609F064CFCE010196E8
:102DB0000E941E0F45C58091410490E08E179F0729
:102DC000A1F1EE0FFF1FEF5BFE4F80818093430464
:102DD000918190934404C092410461E00E942305D4
:102DE00061E0809144040E94230561E080914304E6
:102DF0000E94F30461E0809144040E94F30480E4A3
:102E00000E94E70E8CE80E94E70EE7E4F4E080E120
:102E10008E0F11928E13FDCF81E0809345041092A6
:102E2000460487E494E00E948A0E8091A101282F35
:102E300030E0813009F067C10091A201002E000C42
:102E4000110B2091A3018091A40190E0A5EAB1E0CB
:102E5000EFEDF1E0AF014F5D5140481759071CF409
:102E60003D913193F7CFFC01E152FE4F108281E09A
:102E700080934604E12CF12CF701E152FE4F808152
:102E8000F701E15CFB4F882321F043E1E416F104F4
:102E900081F4F0925B04E0925A04158E3AEFA70198
:102EA0003403C001359F900D11240817190764F0F1
:102EB00005C0858F5FEFE51AF50ADECF01311105F8
:102EC00024F000E110E001C08C011093580400933D
:102ED000570420310CF02FE027FD2FEF20935904E9
:102EE000101611060CF067C080E090E0382F8017B4
:102EF000910751F001968131910509F4CFC0FC0191
:102F0000E15CFB4F1782F2CF803109F4C7C0D12CAE
:102F100047E0C42E50E2B52E8D2D90E08E159F0512
:102F20000CF040C0A12C8C01045A1B4FCA9CD0014C
:102F30001124AD0146515F4FFA016491603421F1D3
:102F4000FA016491F8017081E72F770FFF0B70E0B1
:102F5000E617F707B9F460E070E01196FD01E60F9F
:102F6000F71FE651FF4F1491E32FF0E0E15CFB4FB8
:102F700010873F5F303141F06F5F7F4F66307105E2
:102F800069F702C0A394D2CFFA014491403429F4E6
:102F9000FC01E15CFB4FB58EDA94D394303109F03B
:102FA000BBCF7CC0E32FF0E0E15CFB4F10863F5FBE
:102FB0003031C1F773C00817190741F4E7E4F4E0B2
:102FC00080E18E0F11928E13FDCF68C0EE27FF2790
:102FD000E01BF10BCF0166E070E00E946626B82E80
:102FE000F0935804E0935704AB0130E087E0A82E3B
:102FF00090E2992E4E155F050CF047C0812CCA0156
:10300000845A9B4FA89CD0011124BD0166517F4F6B
:10301000FB01D490F0E4DF1621F1FB017490FC0178
:10302000C0800C2C000CDD08E72DF0E0CE16DF068A
:10303000A9F4FD01EB0DF11DB7FCFA95E551FF4F29
:103040008491E32FF0E0E15CFB4F80873F5F3031FC
:1030500038F4B394F6E0BF12ECCF02C08394D2CF21
:10306000B12CFB016491603431F4FA01E15CFB4F57
:10307000958E415051094F5F5F4F303108F4BACF00
:10308000109358040093570409C0E32FF0E0E15C6B
:10309000FB4F10863F5F3031C1F7F2CF022E000C9C
:1030A000330B47E050E0421B530BE7E4F4E057FDDD
:1030B00014C090E19E0F8081042E01C0880F0A94F5
:1030C000EAF781939E13F7CF809145048111DCC20A
:1030D000E7E4F4E090E19E0F10C02750310940E191
:1030E0004E0F808190E0022E02C0959587950A943C
:1030F000E2F781934E13F5CFE7CF808180958193DE
:103100009E13FBCFC1C2823009F08CC08091A20116
:103110007091A301A4EAB1E0E3EFF1E09D919193F6
:1031200022E0E330F207D1F780310CF089C3783028
:103130000CF086C320914504472F072E000C550B39
:10314000082E000C990BE3EFF1E060E16E0F2223F3
:10315000A1F128E030E0241B350BEFEFFE2E01C07B
:10316000FF0C2A95EAF7DC01A95BBB4FE3EFF1E026
:103170009C01235F314000271127041B150BC90157
:103180008E0F9F1F97FD14C0EC90EF2080811716C3
:1031900044F490E0042E02C0959587950A94E2F7D6
:1031A00005C0002E01C0880F0A94EAF78E298C937F
:1031B000119631966E13E3CF67C228E030E0241BEE
:1031C000350BEFEFFE2E01C0FF0C2A95EAF7DC016C
:1031D000A95BBB4FE3EFF1E0835F9140002711272C
:1031E000041B150B9C012E0F3F1F37FD16C0EC90E2
:1031F000EF20208130E02095309517163CF4042E06
:1032000002C0359527950A94E2F705C0002E01C04B
:10321000220F0A94EAF72E292C93119631966E13F9
:10322000E1CF32C22330310509F08FC02091A201D5
:103230008091A3014091A4013AE0632F0E944626A9
:10324000592F90E0FC01EE0FFF1F8E0F9F1FFC0116
:10325000E35CFC4FE491E0934704FC01E25CFC4F2B
:10326000E491E0934804FC01E15CFC4FE491E093BD
:10327000490410924A04E52FF0E0CF01880F991F0E
:103280008E0F9F1FFC01E35CFC4FE491E0934B0425
:10329000FC01E25CFC4FE491E0934C04FC01E15C36
:1032A000FC4FE491E0934D04842F0E944626392F71
:1032B00090E0FC01EE0FFF1F8E0F9F1FFC01E35CEF
:1032C000FC4FE491E0935004FC01E25CFC4FE4917C
:1032D000E0935104FC01E15CFC4FE491E093520463
:1032E00010925304E32FF0E0CF01880F991F8E0F47
:1032F0009F1FFC01E35CFC4FE491E0935404FC014C
:10330000E25CFC4FE491E0935504FC01E15CFC4F6E
:10331000E491E0935604222331F088E280934E0436
:1033200080934F0404C010924E0410924F04809179
:1033300045048111A9C1E7E4F4E090E19E0F80818A
:10334000809581939E13FBCF9FC12430310509F0F6
:1033500077C28091A201809396018091A30180930E
:1033600097018091A401809398018091A501809399
:103370009901C0909601D0909701E0909801F0904B
:1033800099012601370177FA709477F8709420E05C
:1033900030E0A901C701B6010E949F2187FF05C047
:1033A000942C852C362C272C04C09C2C8D2C3E2C48
:1033B0002F2C13E020E03EE34CE156E4C701B601B8
:1033C0000E94CA2487FD03C089E08D870DC020E0DC
:1033D00030EE49E754ECC701B6010E949F21181650
:1033E0003CF08BE08D8789E08E878F87888BDCC0EF
:1033F00020E030E0A901C701B6010E949F21A82E5C
:10340000AA1CAA24AA1C00E060E070E080E09FE310
:10341000011741F020E030E040E251E40E94CA236D
:103420000F5FF6CF9B01AC01692D782D832D922D76
:103430000E945E232B013C010E944324FB019B015F
:1034400000E0C9016AE070E00E945226A1E0B0E00D
:10345000AC0FBD1FA00FB11D4AE0649F20191124BD
:103460002C930F5F9B01672B61F7802F8A0DB82E7D
:10347000B10E54E05B1518F414E0181B9BCFF02E2E
:103480008CE08D878E878F87888BBF0180E090E0EE
:103490000E94A4219B01AC01C301B2010E945D23E3
:1034A0002B013C0184E08B19AA2039F0FE01E80FC2
:1034B000F11D8BE0858785E08B19080F802F8F1910
:1034C000FF2069F0EDE0F0E0EC0FFD1FE80FF11DCB
:1034D000DE01AF0DB11D8C918083FA94EFCF1123E3
:1034E00009F462C0033071F420E030E040E251E4BE
:1034F000C301B2010E9405220E943C24672B11F5F2
:103500008CE074CF023071F420E030E048EC52E4FB
:10351000C301B2010E9405220E943C24672B91F452
:103520008CE063CF013071F420E030E04AE754E4EE
:10353000C301B2010E9405220E943C24672B11F4B2
:103540008CE052CFFF24F394F00EEDE0F0E0EC0FAE
:10355000FD1FE00FF11D8AE08083115028F120E06B
:1035600030E040E251E4C301B2010E9405224B0168
:103570005C010E943C2401E00F0DEDE0F0E0EC0F57
:10358000FD1FEF0DF11D6083072E000C880B990BBA
:103590000E94A6219B01AC01C501B4010E945D23DC
:1035A0002B013C01F02ED9CFED85F0E0CF01880F43
:1035B000991F8E0F9F1FFC01E35CFC4FE491E09389
:1035C0004704FC01E25CFC4FE491E0934804FC01F9
:1035D000E15CFC4FE491E093490410924A04EE85CB
:1035E000F0E0CF01880F991F8E0F9F1FFC01E35C55
:1035F000FC4FE491E0934B04FC01E25CFC4FE4914E
:10360000E0934C04FC01E15CFC4FE491E0934D0439
:1036100010924E04EF85F0E0CF01880F991F8E0FB6
:103620009F1FFC01E35CFC4FE491E0934F04FC011D
:10363000E25CFC4FE491E0935004FC01E15CFC4F40
:10364000E491E093510410925204E889F0E0CF0134
:10365000880F991F8E0F9F1FFC01E35CFC4FE491C4
:10366000E0935304FC01E25CFC4FE491E0935404CA
:10367000FC01E15CFC4FE491E09355041092560488
:1036800080914504882329F087E494E00E948A0E03
:10369000D7C0E7E4F4E090E19E0F808180958193AC
:1036A0009E13FBCFF1CF8091E40390E08E179F072C
:1036B00061F0EE0FFF1FEF5BFE4F80818093E2030E
:1036C00081818093E303C092E40311E08091A10122
:1036D000811101C010E061E059C06FE671E0CE01D8
:1036E0000D960E945D0400919C0110E003501109A9
:1036F000E12CF12CE016F10664F4F701E656FE4FDA
:103700006681CE010D960E9402048FEFE81AF80A36
:10371000F1CF1A8219821C821B821E821D826D8546
:103720007E856115710531F049895A89CE0101966E
:103730000E943204CE0101960E94C20D89819A81B5
:103740000E94152740E050E06FE671E0CE010D9633
:103750000E9432048D859E850E94152771C080913C
:10376000E40390E08E179F0761F0EE0FFF1FEF5B01
:10377000FE4F80818093E20381818093E303C092B6
:10378000E4031091A10161E0123040F48091E20362
:103790000E942305612F8091E2030FC0123009F4CB
:1037A00060E082EE93E00E9426074AC061E08C2D23
:1037B0000E9423056091A1018C2D0E94F30440C05A
:1037C00061E08C2D0E9423056091A10170E08C2D99
:1037D0000E945F0535C086E090E00E947A098C0166
:1037E00088E090E00E947A091016110644F4AC01BA
:1037F000990F660B770BC8010E943A0B21C00E94FB
:10380000410D1EC01091A101153BD0F4CF010E94C3
:10381000E50C812F90E00E94610C12C00E940F06FF
:103820000E94A42120E030E04AE754E40E94CA2329
:103830006093030270930402809305029093060242
:103840000E945B0A1092090287E00E94BE0511E007
:10385000853691050CF010E01093200280911F0234
:10386000181709F470C00E94080B10931F0211234F
:1038700009F469C080911E0281111FC081E080930C
:103880001E0288EC90E090930201809301010E9457
:103890008909F8944CE251E060E070E08AE491E03C
:1038A0000E943A0B78940E94410D40E060E080E075
:1038B0000E94D60A40E06AE020C0813001F582E033
:1038C00080931E0288EC90E09093020180930101A6
:1038D0000E948909F8944CE251E060E070E08AE4CB
:1038E00091E00E943A0B78940E94410D40E060E024
:1038F00080E00E94D60A4AE060E080E020C082308A
:1039000011F510921E028CED90E0909302018093CD
:1039100001010E948909F8944CE251E060E070E0F6
:1039200086E291E00E943A0B78940E94410D40E0BB
:1039300060E080E00E94D60A4AE06AE08AE00E94E5
:10394000D60A0E94770A00911E02013091F128F0F8
:10395000023009F478C00C94721110910F021230E9
:1039600099F048F41123C9F0113011F00C94721140
:103970000E940D0A0BC0143069F0183011F00C943D
:1039800072110E949C0902C00E94FA0910930E0253
:103990000C9472110E94CE09F9CF80910E028823F7
:1039A00011F40C94721110920E020E9489090C9469
:1039B000721186E490E00E94AA0B0E944324162F05
:1039C0008091140281110CC00E940F0660931002B6
:1039D00070931102809312029093130200931402C9
:1039E00086E00E94BE05BC01990F880B990B6115FA
:1039F00071058105910511F00E9496210E94912187
:103A000011501F3018F00E940D0A15C022E030E05E
:103A100040E050E00E94C322662329F0613059F44F
:103A20000E949C0902C00E94CE0960E273E080E01F
:103A300090E00E94D50564E670E080E090E00E948E
:103A4000D5050C94721160E0809170040E942305EA
:103A5000809170040E94CA048C0180E794E00E9467
:103A6000F60A21E030E0012B11F420E030E0220FD3
:103A7000331F282B8091010190910201873E91050F
:103A800034F086EE90E090930201809301012230A1
:103A9000D9F0233059F1213051F00E940D0AAAE0EB
:103AA000B0E0B0931D02A0931C020C9472110E940E
:103AB0000D0A80911C0290911D028230910514F430
:103AC0000C94721101970CC00E940D0A80911C0287
:103AD00090911D028431910514F00C94721101969D
:103AE00090931D0280931C020C94721180911C0211
:103AF00090911D028A30910521F40E94FA090C94DC
:103B0000721100910101109102010A975CF4C80141
:103B10006BEF7FEF0E9466268EEE93E00E94040812
:103B2000B8010DC066277727601B710B8EEE93E0FE
:103B30000E940408C80165E070E00E94662686EED7
:103B400093E00E9404080C94721110920F020E94DC
:103B50000F066093CE017093CF018093D0019093B4
:103B6000D10180911E02811106C00E94080B4AE01B
:103B70006AE08AE010C0813029F40E94080B40E01E
:103B80006AE008C0823011F00C9427120E94080BE2
:103B90004AE060E080E00E94D60A0E94770A0C9416
:103BA00027120E940F06DC01CB018C199D09AE097A
:103BB000BF098E3E9240A105B10510F40C9452133A
:103BC0000C946913220F331FF901EF5BFE4F9081B4
:103BD0009093E20391819093E3030093E403809335
:103BE000E5030C948114C0928604D0928704EE0FF2
:103BF000FF1FEF5BFE4F818180938504808180935E
:103C00008404A12CB12C8091880490918904A81679
:103C1000B90610F00C94901520E040E060E08A2D89
:103C20000E94AF0A5FEFA51AB50AEDCF8091840418
:103C30000C94961581E080931B048BE194E00E9424
:103C40003B0710911E040E940F066093CE017093F3
:103C5000CF018093D0019093D101812F90E0A0E01B
:103C6000B0E080349105A105B10599F481E080931D
:103C7000000190911E0291110C94271280930F0263
:103C80000E94080B40E060E080E00E94D60A40E01D
:103C90006FCF81349105A105B10508F0A8C08C3023
:103CA0009105A105B10589F481E080930001F894A4
:103CB0004CE251E060E070E086E291E00E943A0B55
:103CC000789485E790E00C9423128D309105A1053E
:103CD000B10508F051C088309105A105B10589F4FE
:103CE00081E080930001F8944CE251E060E070E0E4
:103CF00089E891E00E943A0B78948AEB90E00C946A
:103D0000231289309105A105B105B9F481E08093B2
:103D1000000180911E0281110C94271288E080938B
:103D20000F020E94080B40E060E080E00E94D60A8B
:103D300020E04AE06AE080E01CC00797A105B105D9
:103D400011F00C94271281E08093000180911E02F3
:103D500081110C94271284E080930F020E94080BBB
:103D600040E060E080E00E94D60A20E04AE06AE09D
:103D700081E00E94AF0A11CF89319105A105B105FB
:103D8000A9F481E08093000180911E0281110C94BE
:103D9000271282E080930F020E94080B40E060E04F
:103DA00080E00E94D60A40E060E0E3CE8C319105CD
:103DB000A105B10559F481E080930001F8944CE22B
:103DC00051E060E070E089EB91E094CF4897A10565
:103DD000B10511F00C94271281E080930001F89452
:103DE0004CE251E060E070E08AE491E067CF873414
:103DF0009105A105B10501F581E08093000188ECF2
:103E000090E0909302018093010182E080931E0272
:103E10000E948909F8944CE251E060E070E08EE580
:103E200091E00E943A0B78940E94080B40E060E019
:103E300080E00E94D60AACCE88349105A105B10578
:103E400008F05BC085349105A105B105F9F481E066
:103E5000809300018CED90E090930201809301012A
:103E600010921E020E948909F8944CE251E060E031
:103E700070E086E291E00E943A0B78940E94080B71
:103E800040E060E080E00E94D60A71CE8634910561
:103E9000A105B105F8F081E08093000128EC30E045
:103EA000309302012093010180931E020E94890930
:103EB000F8944CE251E060E070E08AE491E00E9406
:103EC0003A0B78940E94080B40E060E080E00E948A
:103ED000D60A55CE82349105A105B10511F00C9496
:103EE000271281E080930001F8944CE251E060E0F9
:103EF00070E08CE292E00C941E1282359105A105CF
:103F0000B10511F00C94081281E080930001F8943F
:103F10004CE251E060E070E08DE492E00C941E12FF
:103F20008A359105A105B10559F481E0809300011E
:103F3000F8944CE251E060E070E08FEE91E0DACE70
:103F40008E359105A105B10511F00C94271281E081
:103F500080930001F8944CE251E060E070E08EE55F
:103F600091E0ACCECF93DF938091D9039091DA03A7
:103F70000E941527CBE1D4E08A8D9B8D0E941527E6
:103F80008C899D890E94152780918A0490918B04C9
:103F9000DF91CF910C9415271F93CF93DF9310924D
:103FA000AD021092AC0288EE93E0A0E0B0E0809306
:103FB000AE029093AF02A093B002B093B10221E29F
:103FC00031E03093AB022093AA0225EC30E030932D
:103FD000B7022093B60224EC30E03093B90220936C
:103FE000B80220EC30E03093BB022093BA0221ECFF
:103FF00030E03093BD022093BC0222EC30E03093DD
:10400000BF022093BE0226EC30E03093C102209321
:10401000C0021092C3021092C4021092C502109204
:10402000C60221E030E030939F0420939E0410925A
:10403000A0051092A1051092A2051092A30510925E
:10404000A4051092A5051092A6051092A70510923E
:10405000A8051092A9051092AA051092AB0510921E
:10406000AC051092AD051092AF051092AE051092FE
:10407000B0051092B1051092B2051092B3051092DE
:10408000B4051092B5051092B6051092B7051092BE
:10409000B805109294041092930480939504909321
:1040A0009604A0939704B093980483E391E09093CF
:1040B00092048093910410928404109285041092CB
:1040C0008604EAEAF3E0E491E0939004E6E9F3E0A1
:1040D000E491F0E0EE0FFF1FE457FC4F85919491BF
:1040E00090938D0480938C0461E080E00E9423050E
:1040F00080E190E0909389048093880480E390E0CD
:104100000E94802690938B0480938A04892B21F44B
:1041100080E791E00E948C2820E030E080918804C4
:1041200090918904AC01440F551F840F951F2817E7
:10413000390750F4E0918A04F0918B04E20FF31FE9
:1041400010822F5F3F4FEACF10928604C2E0C093E7
:10415000870480E18093760481E18093770483E093
:104160008093780419E010937004DAE0D09371041E
:10417000C09372048FE394E00E9436076FE671E00B
:104180008FE294E00E945D046FE671E085E394E0C5
:104190000E945D0460E082E00E942305C0936C03EE
:1041A00010923B0410923C0410923D0410923E0485
:1041B00010922604109225041092270410922D04C8
:1041C00040E050E06FE671E08FE294E00E9432043C
:1041D00010922E048BE194E00E943B0761E083E0A3
:1041E0000E94230560E083E00E94F304109217040C
:1041F000109218041092190483E194E00E9436078B
:1042000088E080939D0480E094E00E94360786EF6A
:1042100093E00E94360786E08093EE0387E0809368
:10422000EF031093F00385E08093E60384E080932E
:10423000E703D093E80382EE93E00E943607809173
:104240006B038C30A0F491E0980F90936B038093F4
:10425000DF0390E0FC01EE0FFF1F8E0F9F1FFC019C
:10426000E95BFC4F88EB9BE09283818303C08FEF77
:104270008093DF036CE871E089ED93E0DF91CF91EB
:104280001F910C945D048F929F92AF92BF92CF9238
:10429000DF92EF92FF92CF93DF93EC0168817981F7
:1042A0008A819B81611571058105910521F464E284
:1042B00079ED8BE597E02DE133EF41E050E00E948E
:1042C000C32249015A019B01AC01A7EAB1E40E9453
:1042D000E2226B017C01ACEEB4EFA50194010E94D7
:1042E000F022DC01CB018C0D9D1DAE1DBF1DB7FF63
:1042F00003C00197A109B04888839983AA83BB832F
:10430000BC01CD019F77DF91CF91FF90EF90DF90BF
:10431000CF90BF90AF909F908F9008950E944321BF
:10432000089583E091E00E94432108956093030182
:1043300070930401809305019093060108950E94F3
:10434000E12108F481E00895E89409C097FB3EF468
:1043500090958095709561957F4F8F4F9F4F9923D2
:10436000A9F0F92F96E9BB279395F6958795779550
:104370006795B795F111F8CFFAF4BB0F11F460FF10
:104380001BC06F5F7F4F8F4F9F4F16C0882311F068
:1043900096E911C0772321F09EE8872F762F05C07C
:1043A000662371F096E8862F70E060E02AF09A9517
:1043B000660F771F881FDAF7880F9695879597F90C
:1043C0000895990F0008550FAA0BE0E8FEEF1616A6
:1043D0001706E807F907C0F012161306E407F507F9
:1043E00098F0621B730B840B950B39F40A2661F06D
:1043F000232B242B252B21F408950A2609F4A14010
:10440000A6958FEF811D811D08950E9418220C949E
:1044100089220E947B2238F00E94822220F095237C
:1044200011F00C9472220C94782211240C94BD2269
:104430000E949A2270F3959FC1F3950F50E0551F8B
:10444000629FF001729FBB27F00DB11D639FAA27E9
:10445000F00DB11DAA1F649F6627B00DA11D661F38
:10446000829F2227B00DA11D621F739FB00DA11D59
:10447000621F839FA00D611D221F749F3327A00D13
:10448000611D231F849F600D211D822F762F6A2FAF
:1044900011249F5750409AF0F1F088234AF0EE0F14
:1044A000FF1FBB1F661F771F881F91505040A9F741
:1044B0009E3F510580F00C9472220C94BD225F3F08
:1044C000E4F3983ED4F3869577956795B795F7957D
:1044D000E7959F5FC1F7FE2B880F911D96958795F5
:1044E00097F9089597F99F6780E870E060E0089574
:1044F0009FEF80EC089500240A94161617061806FC
:104500000906089500240A941216130614060506D7
:104510000895092E0394000C11F4882352F0BB0F68
:1045200040F4BF2B11F460FF04C06F5F7F4F8F4FCB
:104530009F4F089557FD9058440F551F59F05F3F06
:1045400071F04795880F97FB991F61F09F3F79F0B5
:1045500087950895121613061406551FF2CF469537
:10456000F1DF08C0161617061806991FF1CF8695B9
:104570007105610508940895E894BB27662777279D
:10458000CB0197F90895052E97FB1EF400940E9425
:10459000DA2257FD07D00E942C2307FC03D04EF4EB
:1045A0000C94DA2250954095309521953F4F4F4F0E
:1045B0005F4F089590958095709561957F4F8F4FCF
:1045C0009F4F08950E944E23A59F900DB49F900D7C
:1045D000A49F800D911D11240895B7FF0C94E22231
:1045E0000E94E222821B930B08952F923F924F92DA
:1045F0005F926F927F928F929F92AF92BF92CF9273
:10460000DF92EF92FF920F931F93CF93DF93CDB77B
:10461000DEB7CA1BDB0B0FB6F894DEBF0FBECDBFF3
:1046200009942A88398848885F846E847D848C84C4
:104630009B84AA84B984C884DF80EE80FD800C81CD
:104640001B81AA81B981CE0FD11D0FB6F894DEBFB0
:104650000FBECDBFED010895A1E21A2EAA1BBB1B10
:10466000FD010DC0AA1FBB1FEE1FFF1FA217B3073E
:10467000E407F50720F0A21BB30BE40BF50B661F54
:10468000771F881F991F1A9469F760957095809518
:1046900090959B01AC01BD01CF010895A29FB0018F
:1046A000B39FC001A39F700D811D1124911DB29F66
:1046B000700D811D1124911D08955058BB27AA2704
:1046C0000E9475230C9489220E947B2238F00E945C
:1046D000822220F039F49F3F19F426F40C947822BA
:1046E0000EF4E095E7FB0C947222E92F0E949A22C7
:1046F00058F3BA17620773078407950720F079F417
:10470000A6F50C94BC220EF4E0950B2EBA2FA02D2A
:104710000B01B90190010C01CA01A0011124FF276E
:10472000591B99F0593F50F4503E68F11A16F04069
:10473000A22F232F342F4427585FF3CF4695379568
:104740002795A795F0405395C9F77EF41F16BA0B2D
:10475000620B730B840BBAF09150A1F0FF0FBB1FDB
:10476000661F771F881FC2F70EC0BA0F621F731F24
:10477000841F48F4879577956795B795F7959E3F81
:1047800008F0B0CF9395880F08F09927EE0F979512
:10479000879508950E94DE230C9489220E9482222C
:1047A00058F00E947B2240F029F45F3F29F00C94DE
:1047B000722251110C94BD220C9478220E949A22EC
:1047C00068F39923B1F3552391F3951B550BBB2740
:1047D000AA2762177307840738F09F5F5F4F220F85
:1047E000331F441FAA1FA9F335D00E2E3AF0E0E87C
:1047F00032D091505040E695001CCAF72BD0FE2FC6
:1048000029D0660F771F881FBB1F26173707480759
:10481000AB07B0E809F0BB0B802DBF01FF27935811
:104820005F4F3AF09E3F510578F00C9472220C9441
:10483000BD225F3FE4F3983ED4F386957795679564
:10484000B795F7959F5FC9F7880F911D9695879546
:1048500097F90895E1E0660F771F881FBB1F621765
:1048600073078407BA0720F0621B730B840BBA0B23
:10487000EE1F88F7E09508950E9443246894B111D3
:104880000C94BD2208950E94A22288F09F5798F0B0
:10489000B92F9927B751B0F0E1F0660F771F881F45
:1048A000991F1AF0BA95C9F714C0B13091F00E945F
:1048B000BC22B1E008950C94BC22672F782F882782
:1048C000B85F39F0B93FCCF3869577956795B39586
:1048D000D9F73EF490958095709561957F4F8F4FF5
:1048E0009F4F08950E94B22490F09F3748F4911191
:1048F00016F00C94BD2260E070E080E89FEB089514
:1049000026F41B16611D711D811D0C9489240C94C5
:10491000A424882371F4772321F09850872B762FD5
:1049200007C0662311F499270DC09051862B70E0C3
:1049300060E02AF09A95660F771F881FDAF7880FD4
:104940009695879597F908959F3F31F0915020F4FF
:10495000879577956795B795880F911D969587955B
:1049600097F908950E94A222A0F0BEE7B91788F433
:10497000BB279F3860F41616B11D672F782F882744
:10498000985FF7CF869577956795B11D9395963982
:10499000C8F308950E94E12108F48FEF0895FA0109
:1049A000EE0FFF1F309621053105A1F1611571054C
:1049B00061F48038BFE39B0749F168949038810522
:1049C00061F08038BFEF9B0741F099234AF5FF3F24
:1049D000E1053105210519F1E8940894E795D9011D
:1049E000AA2329F4AB2FBE2FF85FD0F310C0FF5FCE
:1049F00070F4A695E0F7F73950F019F0FF3A38F463
:104A00009F779F930DD00F9007FC9058089546F024
:104A10000C94782260E070E080E89FE308954FE70F
:104A20009F775F934F933F932F930E94CA252F91B7
:104A30003F914F915F910E9405220C94272529F404
:104A400016F00C9472220C94BC220C9478220E94D2
:104A5000A222A8F39638A0F707F80F92E8942BE368
:104A60003AEA48EB5FE70E941B220F920F920F92E7
:104A70004DB75EB70F920E941226E8E6F0E00E9462
:104A800059254F915F91EF91FF91E595EE1FFF1F23
:104A900049F0FE57E0684427EE0F441FFA95E1F70E
:104AA0004195550B0E948C250F9007FE0C94802594
:104AB0000895DF93CF931F930F93FF92EF92DF92AE
:104AC0007B018C01689406C0DA2EEF010E94182247
:104AD000FE01E894A5912591359145915591A6F354
:104AE000EF010E947523FE019701A801DA9469F78E
:104AF000DF90EF90FF900F911F91CF91DF9108957C
:104B00009B01AC0160E070E080E89FE30C94CA2355
:104B10000C9472220C94A4240E94A222D8F399230C
:104B2000C9F3940F511DA3F39150504094F059F0E4
:104B3000882332F0660F771F881F91505040C1F7CD
:104B40009E3F51052CF7880F911D9695879597F9F3
:104B500008955F3FACF0983E9CF0BB278695779513
:104B60006795B79508F4B1609395C1F7BB0F58F7F7
:104B700011F460FFE8CF6F5F7F4F8F4F9F4FE3CF00
:104B80000C94BD2216F00C94A4240C947822689402
:104B90000C9472220E94A222A8F39923C1F3AEF3CF
:104BA000DF93CF931F930F93FF92C92FDD278823A5
:104BB0002AF02197660F771F881FDAF720E030E090
:104BC00040E85FEB9FE3883920F0803E38F0219683
:104BD0008F770E945E23E0E9F0E004C00E945E232C
:104BE000EDEBF0E00E9459258B01BE01EC01FB2E9C
:104BF0006F5771097595771F880B990B0E94A62135
:104C000028E132E741E35FE30E941822AF2D9801CB
:104C1000AE01FF900F911F91CF91DF910E947523FC
:104C20000C948922FA01DC01AA0FBB1F9B01AC0185
:104C3000BF5728F4222733274427507820C0B75184
:104C400090F4AB2F0024469537952795011CA3952A
:104C5000D2F3002071F0220F331F441FB395DAF313
:104C60000ED00C945D2361307105A0E88A07B94627
:104C700030F49B01AC01662777278827907830961F
:104C800021F020833183428353830895991B79E077
:104C900004C0991F961708F0961B881F7A95C9F7CC
:104CA00080950895AA1BBB1B51E107C0AA1FBB1F1B
:104CB000A617B70710F0A61BB70B881F991F5A95A8
:104CC000A9F780959095BC01CD01089597FB072E1B
:104CD00016F4009407D077FD09D00E94522607FCF5
:104CE00005D03EF4909581959F4F089570956195FC
:104CF0007F4F0895EE0FFF1F0590F491E02D09946A
:104D0000CF93DF938230910510F482E090E0E09140
:104D1000BB05F091BC0520E030E0C0E0D0E030976A
:104D200011F14081518148175907C0F048175907C0
:104D300061F482819381209719F09B838A832BC031
:104D40009093BC058093BB0526C02115310519F051
:104D50004217530718F49A01BE01DF01EF010280E8
:104D6000F381E02DDCCF2115310509F1281B390B2A
:104D70002430310590F412968D919C911397611512
:104D8000710521F0FB019383828304C09093BC05DD
:104D90008093BB05FD01329644C0FD01E20FF31F75
:104DA00081939193225031092D933C933AC02091E5
:104DB000B9053091BA05232B41F4209109013091B6
:104DC0000A013093BA052093B9052091070130916B
:104DD00008012115310541F42DB73EB740910B0173
:104DE00050910C01241B350BE091B905F091BA05E7
:104DF000E217F307A0F42E1B3F0B2817390778F0B2
:104E0000AC014E5F5F4F2417350748F04E0F5F1F10
:104E10005093BA054093B9058193919302C0E0E0A5
:104E2000F0E0CF01DF91CF9108950F931F93CF93BF
:104E3000DF93009709F48CC0FC0132971382128231
:104E40000091BB051091BC050115110581F420816D
:104E50003181820F931F2091B9053091BA0528172F
:104E6000390779F5F093BA05E093B90571C0D80117
:104E700040E050E0AE17BF0750F412962D913C91E0
:104E80001397AD012115310509F1D901F3CF9D012A
:104E9000DA013383228360817181860F971F821725
:104EA000930769F4EC0128813981260F371F2E5FA3
:104EB0003F4F318320838A819B8193838283452B5B
:104EC00029F4F093BC05E093BB0542C01396FC9314
:104ED000EE931297ED01499159919E01240F351FD0
:104EE000E217F30771F480819181840F951F029678
:104EF00011969C938E938281938113969C938E93AB
:104F00001297E0E0F0E0D80112968D919C911397F2
:104F1000009719F0F8018C01F6CF8D919C919801C2
:104F20002E5F3F4F820F931F2091B9053091BA0534
:104F30002817390769F4309729F41092BC051092AC
:104F4000BB0502C0138212821093BA050093B90503
:104F5000DF91CF911F910F910895A0E0B0E0E3EBB6
:104F6000F7E20C94F922EC01009721F4CB010E94A6
:104F70008026B8C0FC01E60FF71F9C0122503109C2
:104F8000E217F30708F4ACC0D9010D911C911197F9
:104F900006171707B0F00530110508F49FC0C801C7
:104FA00004978617970708F499C002501109061B49
:104FB000170B019311936D937C93CF010E941527DA
:104FC0008DC05B01A01AB10A4C01800E911EA09108
:104FD000BB05B091BC0540E050E0E12CF12C1097EE
:104FE00009F44AC0A815B905D1F56D907C901197C8
:104FF000630182E0C80ED11CCA14DB0480F1A30156
:105000004A195B096A0182E0C80ED11C1296BC9055
:1050100012971396AC91B5E0CB16D10440F0B28252
:10502000A38351834083D9016D937C930AC00E5FA3
:105030001F4FC301800F911FF90191838083EB2DD6
:10504000FA2FE114F10431F0D7011396FC93EE939B
:10505000129744C0F093BC05E093BB053FC08D910F
:105060009C9111974817590708F4AC017D011296DD
:105070000D90BC91A02DB3CF8091B9059091BA0548
:1050800088159905E1F446175707C8F48091070180
:1050900090910801009741F48DB79EB740910B01A4
:1050A00050910C01841B950BE817F907C8F4F09395
:1050B000BA05E093B905F901718360830FC0CB0194
:1050C0000E9480267C01009759F0A801BE010E9431
:1050D0007C28CE010E941527C70104C0CE0102C062
:1050E00080E090E0CDB7DEB7EEE00C94152381E0D0
:1050F00090E0F8940C94BC28FB01DC0102C0019004
:105100000D9241505040D8F70895FB01DC01019009
:105110000D920020E1F708950F931F93CF93DF9333
:10512000E091BF05F091C005238121FF1BC08C01D8
:10513000D0E0C0E0F80181918F016091BF057091CE
:10514000C005DB011896ED91FC911997882331F089
:105150000995892B79F3DFEFCFEFECCF8AE0099542
:10516000892B19F08FEF9FEF02C08D2F9C2FDF91BD
:10517000CF911F910F91089511E0C1EFD1E004C0CC
:10518000FE010E947A262196C23FD107C9F7F89402
:02519000FFCF4F
:1051920001C800010000000000C30580000E000FDE
:1051A200001000110012001300140015000000008E
:1051B20000AF021C024702F602780256026A02009F
:1051C200000000C403B003D603A203A903A603A3ED
:1051D2000300000B0C090A10110E0F000008141531
:1051E2000D0814060705040000000000000000007E
:1051F20000000056657273696F6E3A20000D0A0056
:105202005468657265206973206E6F7420656E6FD5
:10521200756768207370616365210D0030362E302A
:06522200312E303039008E
:00000001FF
